{
  "_format": "hh-sol-artifact-1",
  "contractName": "CaseContract",
  "sourceName": "contracts/CaseContract.sol",
  "abi": [
    {
      "inputs": [
        {
          "internalType": "address",
          "name": "_roleManager",
          "type": "address"
        }
      ],
      "stateMutability": "nonpayable",
      "type": "constructor"
    },
    {
      "anonymous": false,
      "inputs": [
        {
          "indexed": true,
          "internalType": "uint256",
          "name": "caseId",
          "type": "uint256"
        },
        {
          "indexed": true,
          "internalType": "address",
          "name": "victim",
          "type": "address"
        },
        {
          "indexed": false,
          "internalType": "string",
          "name": "latitude",
          "type": "string"
        },
        {
          "indexed": false,
          "internalType": "string",
          "name": "longitude",
          "type": "string"
        }
      ],
      "name": "CaseCreated",
      "type": "event"
    },
    {
      "anonymous": false,
      "inputs": [
        {
          "indexed": true,
          "internalType": "uint256",
          "name": "caseId",
          "type": "uint256"
        },
        {
          "indexed": true,
          "internalType": "address",
          "name": "victim",
          "type": "address"
        }
      ],
      "name": "CaseMarkedFalse",
      "type": "event"
    },
    {
      "inputs": [],
      "name": "caseCounter",
      "outputs": [
        {
          "internalType": "uint256",
          "name": "",
          "type": "uint256"
        }
      ],
      "stateMutability": "view",
      "type": "function"
    },
    {
      "inputs": [],
      "name": "caseRegistry",
      "outputs": [
        {
          "internalType": "contract CaseRegistry",
          "name": "",
          "type": "address"
        }
      ],
      "stateMutability": "view",
      "type": "function"
    },
    {
      "inputs": [
        {
          "internalType": "uint256",
          "name": "",
          "type": "uint256"
        }
      ],
      "name": "cases",
      "outputs": [
        {
          "internalType": "uint256",
          "name": "id",
          "type": "uint256"
        },
        {
          "internalType": "address",
          "name": "victim",
          "type": "address"
        },
        {
          "internalType": "enum CaseContract.CaseStatus",
          "name": "status",
          "type": "uint8"
        },
        {
          "internalType": "string",
          "name": "latitude",
          "type": "string"
        },
        {
          "internalType": "string",
          "name": "longitude",
          "type": "string"
        },
        {
          "internalType": "uint256",
          "name": "timestamp",
          "type": "uint256"
        }
      ],
      "stateMutability": "view",
      "type": "function"
    },
    {
      "inputs": [
        {
          "internalType": "string",
          "name": "_latitude",
          "type": "string"
        },
        {
          "internalType": "string",
          "name": "_longitude",
          "type": "string"
        }
      ],
      "name": "createCase",
      "outputs": [],
      "stateMutability": "nonpayable",
      "type": "function"
    },
    {
      "inputs": [
        {
          "internalType": "uint256",
          "name": "_caseId",
          "type": "uint256"
        }
      ],
      "name": "getCase",
      "outputs": [
        {
          "components": [
            {
              "internalType": "uint256",
              "name": "id",
              "type": "uint256"
            },
            {
              "internalType": "address",
              "name": "victim",
              "type": "address"
            },
            {
              "internalType": "enum CaseContract.CaseStatus",
              "name": "status",
              "type": "uint8"
            },
            {
              "internalType": "string",
              "name": "latitude",
              "type": "string"
            },
            {
              "internalType": "string",
              "name": "longitude",
              "type": "string"
            },
            {
              "internalType": "uint256",
              "name": "timestamp",
              "type": "uint256"
            }
          ],
          "internalType": "struct CaseContract.CaseDetails",
          "name": "",
          "type": "tuple"
        }
      ],
      "stateMutability": "view",
      "type": "function"
    },
    {
      "inputs": [
        {
          "internalType": "uint256",
          "name": "_caseId",
          "type": "uint256"
        }
      ],
      "name": "markAsFalse",
      "outputs": [],
      "stateMutability": "nonpayable",
      "type": "function"
    },
    {
      "inputs": [],
      "name": "roleManager",
      "outputs": [
        {
          "internalType": "contract RoleManagerContract",
          "name": "",
          "type": "address"
        }
      ],
      "stateMutability": "view",
      "type": "function"
    },
    {
      "inputs": [
        {
          "internalType": "address",
          "name": "_registry",
          "type": "address"
        }
      ],
      "name": "setRegistry",
      "outputs": [],
      "stateMutability": "nonpayable",
      "type": "function"
    }
  ],
  "bytecode": "0x608060405234801561001057600080fd5b50604051611911380380611911833981810160405281019061003291906100db565b806000806101000a81548173ffffffffffffffffffffffffffffffffffffffff021916908373ffffffffffffffffffffffffffffffffffffffff16021790555050610108565b600080fd5b600073ffffffffffffffffffffffffffffffffffffffff82169050919050565b60006100a88261007d565b9050919050565b6100b88161009d565b81146100c357600080fd5b50565b6000815190506100d5816100af565b92915050565b6000602082840312156100f1576100f0610078565b5b60006100ff848285016100c6565b91505092915050565b6117fa806101176000396000f3fe608060405234801561001057600080fd5b50600436106100875760003560e01c8063706a4ef41161005b578063706a4ef414610102578063a91a10801461011e578063a91ee0dc1461014e578063f09790dd1461016a57610087565b8062435da51461008c57806343ab8dd3146100aa578063445edbd8146100c85780636db84b9c146100e6575b600080fd5b61009461019f565b6040516100a19190610ba6565b60405180910390f35b6100b26101c3565b6040516100bf9190610bda565b60405180910390f35b6100d06101c9565b6040516100dd9190610c16565b60405180910390f35b61010060048036038101906100fb9190610c71565b6101ef565b005b61011c60048036038101906101179190610de4565b610385565b005b61013860048036038101906101339190610c71565b610685565b6040516101459190611012565b60405180910390f35b61016860048036038101906101639190611060565b61087b565b005b610184600480360381019061017f9190610c71565b610950565b604051610196969594939291906110f5565b60405180910390f35b60008054906101000a900473ffffffffffffffffffffffffffffffffffffffff1681565b60035481565b600160009054906101000a900473ffffffffffffffffffffffffffffffffffffffff1681565b60006002600083815260200190815260200160002090503373ffffffffffffffffffffffffffffffffffffffff168160010160009054906101000a900473ffffffffffffffffffffffffffffffffffffffff1673ffffffffffffffffffffffffffffffffffffffff1614610298576040517f08c379a000000000000000000000000000000000000000000000000000000000815260040161028f906111b0565b60405180910390fd5b600060028111156102ac576102ab610e8c565b5b8160010160149054906101000a900460ff1660028111156102d0576102cf610e8c565b5b14610310576040517f08c379a00000000000000000000000000000000000000000000000000000000081526004016103079061121c565b60405180910390fd5b60018160010160146101000a81548160ff0219169083600281111561033857610337610e8c565b5b02179055503373ffffffffffffffffffffffffffffffffffffffff16827fcde042e42448da6a1a9f1ad7ea9deb5d5c2797841086248ca5ca642dc3db9f3d60405160405180910390a35050565b60008054906101000a900473ffffffffffffffffffffffffffffffffffffffff1673ffffffffffffffffffffffffffffffffffffffff1663217fe6c6336040518263ffffffff1660e01b81526004016103de9190611288565b602060405180830381865afa1580156103fb573d6000803e3d6000fd5b505050506040513d601f19601f8201168201806040525081019061041f91906112ee565b61045e576040517f08c379a00000000000000000000000000000000000000000000000000000000081526004016104559061138d565b60405180910390fd5b60036000815480929190610471906113dc565b91905055506040518060c0016040528060035481526020013373ffffffffffffffffffffffffffffffffffffffff168152602001600060028111156104b9576104b8610e8c565b5b8152602001838152602001828152602001428152506002600060035481526020019081526020016000206000820151816000015560208201518160010160006101000a81548173ffffffffffffffffffffffffffffffffffffffff021916908373ffffffffffffffffffffffffffffffffffffffff16021790555060408201518160010160146101000a81548160ff0219169083600281111561055f5761055e610e8c565b5b021790555060608201518160020190816105799190611626565b50608082015181600301908161058f9190611626565b5060a08201518160040155905050600160009054906101000a900473ffffffffffffffffffffffffffffffffffffffff1673ffffffffffffffffffffffffffffffffffffffff16635ab1558f336003546040518363ffffffff1660e01b81526004016105fc9291906116f8565b600060405180830381600087803b15801561061657600080fd5b505af115801561062a573d6000803e3d6000fd5b505050503373ffffffffffffffffffffffffffffffffffffffff166003547fcd29ad816d80aa66db971719cfd948b5f3b0de8b3e94c7f89182014bc2bd81a58484604051610679929190611721565b60405180910390a35050565b61068d610ac9565b600260008381526020019081526020016000206040518060c0016040529081600082015481526020016001820160009054906101000a900473ffffffffffffffffffffffffffffffffffffffff1673ffffffffffffffffffffffffffffffffffffffff1673ffffffffffffffffffffffffffffffffffffffff1681526020016001820160149054906101000a900460ff1660028111156107305761072f610e8c565b5b600281111561074257610741610e8c565b5b815260200160028201805461075690611453565b80601f016020809104026020016040519081016040528092919081815260200182805461078290611453565b80156107cf5780601f106107a4576101008083540402835291602001916107cf565b820191906000526020600020905b8154815290600101906020018083116107b257829003601f168201915b505050505081526020016003820180546107e890611453565b80601f016020809104026020016040519081016040528092919081815260200182805461081490611453565b80156108615780601f1061083657610100808354040283529160200191610861565b820191906000526020600020905b81548152906001019060200180831161084457829003601f168201915b505050505081526020016004820154815250509050919050565b600073ffffffffffffffffffffffffffffffffffffffff16600160009054906101000a900473ffffffffffffffffffffffffffffffffffffffff1673ffffffffffffffffffffffffffffffffffffffff161461090c576040517f08c379a0000000000000000000000000000000000000000000000000000000008152600401610903906117a4565b60405180910390fd5b80600160006101000a81548173ffffffffffffffffffffffffffffffffffffffff021916908373ffffffffffffffffffffffffffffffffffffffff16021790555050565b60026020528060005260406000206000915090508060000154908060010160009054906101000a900473ffffffffffffffffffffffffffffffffffffffff16908060010160149054906101000a900460ff16908060020180546109b290611453565b80601f01602080910402602001604051908101604052809291908181526020018280546109de90611453565b8015610a2b5780601f10610a0057610100808354040283529160200191610a2b565b820191906000526020600020905b815481529060010190602001808311610a0e57829003601f168201915b505050505090806003018054610a4090611453565b80601f0160208091040260200160405190810160405280929190818152602001828054610a6c90611453565b8015610ab95780601f10610a8e57610100808354040283529160200191610ab9565b820191906000526020600020905b815481529060010190602001808311610a9c57829003601f168201915b5050505050908060040154905086565b6040518060c0016040528060008152602001600073ffffffffffffffffffffffffffffffffffffffff16815260200160006002811115610b0c57610b0b610e8c565b5b81526020016060815260200160608152602001600081525090565b600073ffffffffffffffffffffffffffffffffffffffff82169050919050565b6000819050919050565b6000610b6c610b67610b6284610b27565b610b47565b610b27565b9050919050565b6000610b7e82610b51565b9050919050565b6000610b9082610b73565b9050919050565b610ba081610b85565b82525050565b6000602082019050610bbb6000830184610b97565b92915050565b6000819050919050565b610bd481610bc1565b82525050565b6000602082019050610bef6000830184610bcb565b92915050565b6000610c0082610b73565b9050919050565b610c1081610bf5565b82525050565b6000602082019050610c2b6000830184610c07565b92915050565b6000604051905090565b600080fd5b600080fd5b610c4e81610bc1565b8114610c5957600080fd5b50565b600081359050610c6b81610c45565b92915050565b600060208284031215610c8757610c86610c3b565b5b6000610c9584828501610c5c565b91505092915050565b600080fd5b600080fd5b6000601f19601f8301169050919050565b7f4e487b7100000000000000000000000000000000000000000000000000000000600052604160045260246000fd5b610cf182610ca8565b810181811067ffffffffffffffff82111715610d1057610d0f610cb9565b5b80604052505050565b6000610d23610c31565b9050610d2f8282610ce8565b919050565b600067ffffffffffffffff821115610d4f57610d4e610cb9565b5b610d5882610ca8565b9050602081019050919050565b82818337600083830152505050565b6000610d87610d8284610d34565b610d19565b905082815260208101848484011115610da357610da2610ca3565b5b610dae848285610d65565b509392505050565b600082601f830112610dcb57610dca610c9e565b5b8135610ddb848260208601610d74565b91505092915050565b60008060408385031215610dfb57610dfa610c3b565b5b600083013567ffffffffffffffff811115610e1957610e18610c40565b5b610e2585828601610db6565b925050602083013567ffffffffffffffff811115610e4657610e45610c40565b5b610e5285828601610db6565b9150509250929050565b610e6581610bc1565b82525050565b6000610e7682610b27565b9050919050565b610e8681610e6b565b82525050565b7f4e487b7100000000000000000000000000000000000000000000000000000000600052602160045260246000fd5b60038110610ecc57610ecb610e8c565b5b50565b6000819050610edd82610ebb565b919050565b6000610eed82610ecf565b9050919050565b610efd81610ee2565b82525050565b600081519050919050565b600082825260208201905092915050565b60005b83811015610f3d578082015181840152602081019050610f22565b60008484015250505050565b6000610f5482610f03565b610f5e8185610f0e565b9350610f6e818560208601610f1f565b610f7781610ca8565b840191505092915050565b600060c083016000830151610f9a6000860182610e5c565b506020830151610fad6020860182610e7d565b506040830151610fc06040860182610ef4565b5060608301518482036060860152610fd88282610f49565b91505060808301518482036080860152610ff28282610f49565b91505060a083015161100760a0860182610e5c565b508091505092915050565b6000602082019050818103600083015261102c8184610f82565b905092915050565b61103d81610e6b565b811461104857600080fd5b50565b60008135905061105a81611034565b92915050565b60006020828403121561107657611075610c3b565b5b60006110848482850161104b565b91505092915050565b61109681610e6b565b82525050565b6110a581610ee2565b82525050565b600082825260208201905092915050565b60006110c782610f03565b6110d181856110ab565b93506110e1818560208601610f1f565b6110ea81610ca8565b840191505092915050565b600060c08201905061110a6000830189610bcb565b611117602083018861108d565b611124604083018761109c565b818103606083015261113681866110bc565b9050818103608083015261114a81856110bc565b905061115960a0830184610bcb565b979650505050505050565b7f4f6e6c792076696374696d2063616e206d61726b2066616c7365000000000000600082015250565b600061119a601a836110ab565b91506111a582611164565b602082019050919050565b600060208201905081810360008301526111c98161118d565b9050919050565b7f4e6f742061637469766500000000000000000000000000000000000000000000600082015250565b6000611206600a836110ab565b9150611211826111d0565b602082019050919050565b60006020820190508181036000830152611235816111f9565b9050919050565b7f5573657200000000000000000000000000000000000000000000000000000000600082015250565b60006112726004836110ab565b915061127d8261123c565b602082019050919050565b600060408201905061129d600083018461108d565b81810360208301526112ae81611265565b905092915050565b60008115159050919050565b6112cb816112b6565b81146112d657600080fd5b50565b6000815190506112e8816112c2565b92915050565b60006020828403121561130457611303610c3b565b5b6000611312848285016112d9565b91505092915050565b7f4f6e6c79207265676973746572656420757365722063616e206372656174652060008201527f6361736500000000000000000000000000000000000000000000000000000000602082015250565b60006113776024836110ab565b91506113828261131b565b604082019050919050565b600060208201905081810360008301526113a68161136a565b9050919050565b7f4e487b7100000000000000000000000000000000000000000000000000000000600052601160045260246000fd5b60006113e782610bc1565b91507fffffffffffffffffffffffffffffffffffffffffffffffffffffffffffffffff8203611419576114186113ad565b5b600182019050919050565b7f4e487b7100000000000000000000000000000000000000000000000000000000600052602260045260246000fd5b6000600282049050600182168061146b57607f821691505b60208210810361147e5761147d611424565b5b50919050565b60008190508160005260206000209050919050565b60006020601f8301049050919050565b600082821b905092915050565b6000600883026114e67fffffffffffffffffffffffffffffffffffffffffffffffffffffffffffffffff826114a9565b6114f086836114a9565b95508019841693508086168417925050509392505050565b600061152361151e61151984610bc1565b610b47565b610bc1565b9050919050565b6000819050919050565b61153d83611508565b6115516115498261152a565b8484546114b6565b825550505050565b600090565b611566611559565b611571818484611534565b505050565b5b818110156115955761158a60008261155e565b600181019050611577565b5050565b601f8211156115da576115ab81611484565b6115b484611499565b810160208510156115c3578190505b6115d76115cf85611499565b830182611576565b50505b505050565b600082821c905092915050565b60006115fd600019846008026115df565b1980831691505092915050565b600061161683836115ec565b9150826002028217905092915050565b61162f82610f03565b67ffffffffffffffff81111561164857611647610cb9565b5b6116528254611453565b61165d828285611599565b600060209050601f831160018114611690576000841561167e578287015190505b611688858261160a565b8655506116f0565b601f19841661169e86611484565b60005b828110156116c6578489015182556001820191506020850194506020810190506116a1565b868310156116e357848901516116df601f8916826115ec565b8355505b6001600288020188555050505b505050505050565b600060408201905061170d600083018561108d565b61171a6020830184610bcb565b9392505050565b6000604082019050818103600083015261173b81856110bc565b9050818103602083015261174f81846110bc565b90509392505050565b7f526567697374727920616c7265616479206c696e6b6564000000000000000000600082015250565b600061178e6017836110ab565b915061179982611758565b602082019050919050565b600060208201905081810360008301526117bd81611781565b905091905056fea26469706673582212201fc4bc018706cc1bd0b16647feed8cf1dfb7493b70048bed8e9591e2fcd5affa64736f6c634300081c0033",
  "linkReferences": {},
  "deployedLinkReferences": {}
}