{
  "_format": "hh-sol-artifact-1",
  "contractName": "CaseRegistry",
  "sourceName": "contracts/CaseRegistry.sol",
  "abi": [
    {
      "inputs": [
        {
          "internalType": "address",
          "name": "_roleManager",
          "type": "address"
        }
      ],
      "stateMutability": "nonpayable",
      "type": "constructor"
    },
    {
      "anonymous": false,
      "inputs": [
        {
          "indexed": true,
          "internalType": "uint256",
          "name": "caseId",
          "type": "uint256"
        },
        {
          "indexed": true,
          "internalType": "address",
          "name": "victim",
          "type": "address"
        }
      ],
      "name": "CaseIndexed",
      "type": "event"
    },
    {
      "inputs": [],
      "name": "caseContract",
      "outputs": [
        {
          "internalType": "contract CaseContract",
          "name": "",
          "type": "address"
        }
      ],
      "stateMutability": "view",
      "type": "function"
    },
    {
      "inputs": [
        {
          "internalType": "address",
          "name": "",
          "type": "address"
        },
        {
          "internalType": "uint256",
          "name": "",
          "type": "uint256"
        }
      ],
      "name": "casesByVictim",
      "outputs": [
        {
          "internalType": "uint256",
          "name": "",
          "type": "uint256"
        }
      ],
      "stateMutability": "view",
      "type": "function"
    },
    {
      "inputs": [
        {
          "internalType": "address",
          "name": "_victim",
          "type": "address"
        }
      ],
      "name": "getCasesByVictim",
      "outputs": [
        {
          "internalType": "uint256[]",
          "name": "",
          "type": "uint256[]"
        }
      ],
      "stateMutability": "view",
      "type": "function"
    },
    {
      "inputs": [
        {
          "internalType": "address",
          "name": "_victim",
          "type": "address"
        },
        {
          "internalType": "uint256",
          "name": "_caseId",
          "type": "uint256"
        }
      ],
      "name": "indexCase",
      "outputs": [],
      "stateMutability": "nonpayable",
      "type": "function"
    },
    {
      "inputs": [],
      "name": "owner",
      "outputs": [
        {
          "internalType": "address",
          "name": "",
          "type": "address"
        }
      ],
      "stateMutability": "view",
      "type": "function"
    },
    {
      "inputs": [],
      "name": "roleManager",
      "outputs": [
        {
          "internalType": "contract RoleManagerContract",
          "name": "",
          "type": "address"
        }
      ],
      "stateMutability": "view",
      "type": "function"
    },
    {
      "inputs": [
        {
          "internalType": "address",
          "name": "_caseContract",
          "type": "address"
        }
      ],
      "name": "setCaseContract",
      "outputs": [],
      "stateMutability": "nonpayable",
      "type": "function"
    }
  ],
  "bytecode": "0x608060405234801561001057600080fd5b50604051610a24380380610a248339818101604052810190610032919061011c565b806000806101000a81548173ffffffffffffffffffffffffffffffffffffffff021916908373ffffffffffffffffffffffffffffffffffffffff16021790555033600260006101000a81548173ffffffffffffffffffffffffffffffffffffffff021916908373ffffffffffffffffffffffffffffffffffffffff16021790555050610149565b600080fd5b600073ffffffffffffffffffffffffffffffffffffffff82169050919050565b60006100e9826100be565b9050919050565b6100f9816100de565b811461010457600080fd5b50565b600081519050610116816100f0565b92915050565b600060208284031215610132576101316100b9565b5b600061014084828501610107565b91505092915050565b6108cc806101586000396000f3fe608060405234801561001057600080fd5b506004361061007c5760003560e01c80637b393e4e1161005b5780637b393e4e146100d7578063821ce6c3146101075780638da5cb5b14610137578063d556e8e6146101555761007c565b8062435da514610081578063191276171461009f5780635ab1558f146100bb575b600080fd5b610089610173565b604051610096919061053c565b60405180910390f35b6100b960048036038101906100b4919061059a565b610197565b005b6100d560048036038101906100d091906105fd565b61026b565b005b6100f160048036038101906100ec919061059a565b6103a9565b6040516100fe91906106fb565b60405180910390f35b610121600480360381019061011c91906105fd565b610440565b60405161012e919061072c565b60405180910390f35b61013f610471565b60405161014c9190610756565b60405180910390f35b61015d610497565b60405161016a9190610792565b60405180910390f35b60008054906101000a900473ffffffffffffffffffffffffffffffffffffffff1681565b600260009054906101000a900473ffffffffffffffffffffffffffffffffffffffff1673ffffffffffffffffffffffffffffffffffffffff163373ffffffffffffffffffffffffffffffffffffffff1614610227576040517f08c379a000000000000000000000000000000000000000000000000000000000815260040161021e9061080a565b60405180910390fd5b80600160006101000a81548173ffffffffffffffffffffffffffffffffffffffff021916908373ffffffffffffffffffffffffffffffffffffffff16021790555050565b600160009054906101000a900473ffffffffffffffffffffffffffffffffffffffff1673ffffffffffffffffffffffffffffffffffffffff163373ffffffffffffffffffffffffffffffffffffffff16146102fb576040517f08c379a00000000000000000000000000000000000000000000000000000000081526004016102f290610876565b60405180910390fd5b600360008373ffffffffffffffffffffffffffffffffffffffff1673ffffffffffffffffffffffffffffffffffffffff1681526020019081526020016000208190806001815401808255809150506001900390600052602060002001600090919091909150558173ffffffffffffffffffffffffffffffffffffffff16817fdf5ef400bcc2eacfeb51737a7c88914621cf062347f8bcf019d477719789849e60405160405180910390a35050565b6060600360008373ffffffffffffffffffffffffffffffffffffffff1673ffffffffffffffffffffffffffffffffffffffff16815260200190815260200160002080548060200260200160405190810160405280929190818152602001828054801561043457602002820191906000526020600020905b815481526020019060010190808311610420575b50505050509050919050565b6003602052816000526040600020818154811061045c57600080fd5b90600052602060002001600091509150505481565b600260009054906101000a900473ffffffffffffffffffffffffffffffffffffffff1681565b600160009054906101000a900473ffffffffffffffffffffffffffffffffffffffff1681565b600073ffffffffffffffffffffffffffffffffffffffff82169050919050565b6000819050919050565b60006105026104fd6104f8846104bd565b6104dd565b6104bd565b9050919050565b6000610514826104e7565b9050919050565b600061052682610509565b9050919050565b6105368161051b565b82525050565b6000602082019050610551600083018461052d565b92915050565b600080fd5b6000610567826104bd565b9050919050565b6105778161055c565b811461058257600080fd5b50565b6000813590506105948161056e565b92915050565b6000602082840312156105b0576105af610557565b5b60006105be84828501610585565b91505092915050565b6000819050919050565b6105da816105c7565b81146105e557600080fd5b50565b6000813590506105f7816105d1565b92915050565b6000806040838503121561061457610613610557565b5b600061062285828601610585565b9250506020610633858286016105e8565b9150509250929050565b600081519050919050565b600082825260208201905092915050565b6000819050602082019050919050565b610672816105c7565b82525050565b60006106848383610669565b60208301905092915050565b6000602082019050919050565b60006106a88261063d565b6106b28185610648565b93506106bd83610659565b8060005b838110156106ee5781516106d58882610678565b97506106e083610690565b9250506001810190506106c1565b5085935050505092915050565b60006020820190508181036000830152610715818461069d565b905092915050565b610726816105c7565b82525050565b6000602082019050610741600083018461071d565b92915050565b6107508161055c565b82525050565b600060208201905061076b6000830184610747565b92915050565b600061077c82610509565b9050919050565b61078c81610771565b82525050565b60006020820190506107a76000830184610783565b92915050565b600082825260208201905092915050565b7f4f6e6c79206f776e657200000000000000000000000000000000000000000000600082015250565b60006107f4600a836107ad565b91506107ff826107be565b602082019050919050565b60006020820190508181036000830152610823816107e7565b9050919050565b7f4f6e6c792043617365436f6e74726163742063616e2063616c6c000000000000600082015250565b6000610860601a836107ad565b915061086b8261082a565b602082019050919050565b6000602082019050818103600083015261088f81610853565b905091905056fea264697066735822122041a3b7f36849e1fe422973835a2b88d6d569e061482ee3d05d5be1744b94d92364736f6c634300081c0033",
  "linkReferences": {},
  "deployedLinkReferences": {}
}