{
  "_format": "hh-sol-artifact-1",
  "contractName": "RoleManagerContract",
  "sourceName": "contracts/RoleManagerContract.sol",
  "abi": [
    {
      "anonymous": false,
      "inputs": [
        {
          "indexed": true,
          "internalType": "address",
          "name": "user",
          "type": "address"
        },
        {
          "indexed": false,
          "internalType": "string",
          "name": "role",
          "type": "string"
        }
      ],
      "name": "RoleAssigned",
      "type": "event"
    },
    {
      "inputs": [
        {
          "internalType": "address",
          "name": "_user",
          "type": "address"
        },
        {
          "internalType": "string",
          "name": "_role",
          "type": "string"
        }
      ],
      "name": "assignRole",
      "outputs": [],
      "stateMutability": "nonpayable",
      "type": "function"
    },
    {
      "inputs": [
        {
          "internalType": "address",
          "name": "_user",
          "type": "address"
        }
      ],
      "name": "getRoles",
      "outputs": [
        {
          "internalType": "string[]",
          "name": "",
          "type": "string[]"
        }
      ],
      "stateMutability": "view",
      "type": "function"
    },
    {
      "inputs": [
        {
          "internalType": "address",
          "name": "_user",
          "type": "address"
        },
        {
          "internalType": "string",
          "name": "_role",
          "type": "string"
        }
      ],
      "name": "hasRole",
      "outputs": [
        {
          "internalType": "bool",
          "name": "",
          "type": "bool"
        }
      ],
      "stateMutability": "view",
      "type": "function"
    }
  ],
  "bytecode": "0x6080604052348015600f57600080fd5b50610c528061001f6000396000f3fe608060405234801561001057600080fd5b50600436106100415760003560e01c8063217fe6c614610046578063b7dfcbee14610076578063ce6ccfaf14610092575b600080fd5b610060600480360381019061005b919061060b565b6100c2565b60405161006d9190610682565b60405180910390f35b610090600480360381019061008b919061060b565b610235565b005b6100ac60048036038101906100a7919061069d565b61033c565b6040516100b9919061080b565b60405180910390f35b6000806000808573ffffffffffffffffffffffffffffffffffffffff1673ffffffffffffffffffffffffffffffffffffffff168152602001908152602001600020805480602002602001604051908101604052809291908181526020016000905b828210156101cf5783829060005260206000200180546101429061085c565b80601f016020809104026020016040519081016040528092919081815260200182805461016e9061085c565b80156101bb5780601f10610190576101008083540402835291602001916101bb565b820191906000526020600020905b81548152906001019060200180831161019e57829003601f168201915b505050505081526020019060010190610123565b50505050905060005b81518110156102285783805190602001208282815181106101fc576101fb61088d565b5b6020026020010151805190602001200361021b5760019250505061022f565b80806001019150506101d8565b5060009150505b92915050565b6000815111610279576040517f08c379a000000000000000000000000000000000000000000000000000000000815260040161027090610919565b60405180910390fd5b6000808373ffffffffffffffffffffffffffffffffffffffff1673ffffffffffffffffffffffffffffffffffffffff168152602001908152602001600020819080600181540180825580915050600190039060005260206000200160009091909190915090816102e99190610aef565b508173ffffffffffffffffffffffffffffffffffffffff167f3565795c2fb8842c21347d277937778bbcfe788b5b4f790fc5e408786cbe9c90826040516103309190610bfa565b60405180910390a25050565b60606000808373ffffffffffffffffffffffffffffffffffffffff1673ffffffffffffffffffffffffffffffffffffffff168152602001908152602001600020805480602002602001604051908101604052809291908181526020016000905b828210156104485783829060005260206000200180546103bb9061085c565b80601f01602080910402602001604051908101604052809291908181526020018280546103e79061085c565b80156104345780601f1061040957610100808354040283529160200191610434565b820191906000526020600020905b81548152906001019060200180831161041757829003601f168201915b50505050508152602001906001019061039c565b505050509050919050565b6000604051905090565b600080fd5b600080fd5b600073ffffffffffffffffffffffffffffffffffffffff82169050919050565b600061049282610467565b9050919050565b6104a281610487565b81146104ad57600080fd5b50565b6000813590506104bf81610499565b92915050565b600080fd5b600080fd5b6000601f19601f8301169050919050565b7f4e487b7100000000000000000000000000000000000000000000000000000000600052604160045260246000fd5b610518826104cf565b810181811067ffffffffffffffff82111715610537576105366104e0565b5b80604052505050565b600061054a610453565b9050610556828261050f565b919050565b600067ffffffffffffffff821115610576576105756104e0565b5b61057f826104cf565b9050602081019050919050565b82818337600083830152505050565b60006105ae6105a98461055b565b610540565b9050828152602081018484840111156105ca576105c96104ca565b5b6105d584828561058c565b509392505050565b600082601f8301126105f2576105f16104c5565b5b813561060284826020860161059b565b91505092915050565b600080604083850312156106225761062161045d565b5b6000610630858286016104b0565b925050602083013567ffffffffffffffff81111561065157610650610462565b5b61065d858286016105dd565b9150509250929050565b60008115159050919050565b61067c81610667565b82525050565b60006020820190506106976000830184610673565b92915050565b6000602082840312156106b3576106b261045d565b5b60006106c1848285016104b0565b91505092915050565b600081519050919050565b600082825260208201905092915050565b6000819050602082019050919050565b600081519050919050565b600082825260208201905092915050565b60005b83811015610730578082015181840152602081019050610715565b60008484015250505050565b6000610747826106f6565b6107518185610701565b9350610761818560208601610712565b61076a816104cf565b840191505092915050565b6000610781838361073c565b905092915050565b6000602082019050919050565b60006107a1826106ca565b6107ab81856106d5565b9350836020820285016107bd856106e6565b8060005b858110156107f957848403895281516107da8582610775565b94506107e583610789565b925060208a019950506001810190506107c1565b50829750879550505050505092915050565b600060208201905081810360008301526108258184610796565b905092915050565b7f4e487b7100000000000000000000000000000000000000000000000000000000600052602260045260246000fd5b6000600282049050600182168061087457607f821691505b6020821081036108875761088661082d565b5b50919050565b7f4e487b7100000000000000000000000000000000000000000000000000000000600052603260045260246000fd5b600082825260208201905092915050565b7f496e76616c696420726f6c650000000000000000000000000000000000000000600082015250565b6000610903600c836108bc565b915061090e826108cd565b602082019050919050565b60006020820190508181036000830152610932816108f6565b9050919050565b60008190508160005260206000209050919050565b60006020601f8301049050919050565b600082821b905092915050565b60006008830261099b7fffffffffffffffffffffffffffffffffffffffffffffffffffffffffffffffff8261095e565b6109a5868361095e565b95508019841693508086168417925050509392505050565b6000819050919050565b6000819050919050565b60006109ec6109e76109e2846109bd565b6109c7565b6109bd565b9050919050565b6000819050919050565b610a06836109d1565b610a1a610a12826109f3565b84845461096b565b825550505050565b600090565b610a2f610a22565b610a3a8184846109fd565b505050565b5b81811015610a5e57610a53600082610a27565b600181019050610a40565b5050565b601f821115610aa357610a7481610939565b610a7d8461094e565b81016020851015610a8c578190505b610aa0610a988561094e565b830182610a3f565b50505b505050565b600082821c905092915050565b6000610ac660001984600802610aa8565b1980831691505092915050565b6000610adf8383610ab5565b9150826002028217905092915050565b610af8826106f6565b67ffffffffffffffff811115610b1157610b106104e0565b5b610b1b825461085c565b610b26828285610a62565b600060209050601f831160018114610b595760008415610b47578287015190505b610b518582610ad3565b865550610bb9565b601f198416610b6786610939565b60005b82811015610b8f57848901518255600182019150602085019450602081019050610b6a565b86831015610bac5784890151610ba8601f891682610ab5565b8355505b6001600288020188555050505b505050505050565b6000610bcc826106f6565b610bd681856108bc565b9350610be6818560208601610712565b610bef816104cf565b840191505092915050565b60006020820190508181036000830152610c148184610bc1565b90509291505056fea26469706673582212205270da264afc98f08e55f41bebe42de86c6e5fc7338383ef4b97bd9a219cccb364736f6c634300081c0033",
  "linkReferences": {},
  "deployedLinkReferences": {}
}