{
  "_format": "hh-sol-artifact-1",
  "contractName": "VolunteerReportContract",
  "sourceName": "contracts/VolunteerReportContract.sol",
  "abi": [
    {
      "inputs": [
        {
          "internalType": "address",
          "name": "_roleManager",
          "type": "address"
        },
        {
          "internalType": "address",
          "name": "_caseContract",
          "type": "address"
        }
      ],
      "stateMutability": "nonpayable",
      "type": "constructor"
    },
    {
      "anonymous": false,
      "inputs": [
        {
          "indexed": true,
          "internalType": "uint256",
          "name": "caseId",
          "type": "uint256"
        },
        {
          "indexed": true,
          "internalType": "address",
          "name": "actor",
          "type": "address"
        },
        {
          "indexed": false,
          "internalType": "uint8",
          "name": "actionCode",
          "type": "uint8"
        },
        {
          "indexed": false,
          "internalType": "uint256",
          "name": "timestamp",
          "type": "uint256"
        }
      ],
      "name": "VolunteerAction",
      "type": "event"
    },
    {
      "inputs": [
        {
          "internalType": "uint256",
          "name": "_caseId",
          "type": "uint256"
        }
      ],
      "name": "acceptCase",
      "outputs": [],
      "stateMutability": "nonpayable",
      "type": "function"
    },
    {
      "inputs": [
        {
          "internalType": "uint256",
          "name": "",
          "type": "uint256"
        },
        {
          "internalType": "uint256",
          "name": "",
          "type": "uint256"
        }
      ],
      "name": "acceptedVolunteers",
      "outputs": [
        {
          "internalType": "address",
          "name": "",
          "type": "address"
        }
      ],
      "stateMutability": "view",
      "type": "function"
    },
    {
      "inputs": [],
      "name": "caseContract",
      "outputs": [
        {
          "internalType": "contract CaseContract",
          "name": "",
          "type": "address"
        }
      ],
      "stateMutability": "view",
      "type": "function"
    },
    {
      "inputs": [
        {
          "internalType": "uint256",
          "name": "_caseId",
          "type": "uint256"
        }
      ],
      "name": "getAcceptedVolunteers",
      "outputs": [
        {
          "internalType": "address[]",
          "name": "",
          "type": "address[]"
        }
      ],
      "stateMutability": "view",
      "type": "function"
    },
    {
      "inputs": [
        {
          "internalType": "uint256",
          "name": "_caseId",
          "type": "uint256"
        }
      ],
      "name": "getLogsByCase",
      "outputs": [
        {
          "components": [
            {
              "internalType": "uint256",
              "name": "caseId",
              "type": "uint256"
            },
            {
              "internalType": "address",
              "name": "volunteer",
              "type": "address"
            },
            {
              "internalType": "uint8",
              "name": "actionCode",
              "type": "uint8"
            },
            {
              "internalType": "uint256",
              "name": "timestamp",
              "type": "uint256"
            }
          ],
          "internalType": "struct VolunteerReportContract.VolunteerLog[]",
          "name": "",
          "type": "tuple[]"
        }
      ],
      "stateMutability": "view",
      "type": "function"
    },
    {
      "inputs": [
        {
          "internalType": "uint256",
          "name": "",
          "type": "uint256"
        },
        {
          "internalType": "uint256",
          "name": "",
          "type": "uint256"
        }
      ],
      "name": "logsByCase",
      "outputs": [
        {
          "internalType": "uint256",
          "name": "caseId",
          "type": "uint256"
        },
        {
          "internalType": "address",
          "name": "volunteer",
          "type": "address"
        },
        {
          "internalType": "uint8",
          "name": "actionCode",
          "type": "uint8"
        },
        {
          "internalType": "uint256",
          "name": "timestamp",
          "type": "uint256"
        }
      ],
      "stateMutability": "view",
      "type": "function"
    },
    {
      "inputs": [
        {
          "internalType": "uint256",
          "name": "_caseId",
          "type": "uint256"
        }
      ],
      "name": "queryCase",
      "outputs": [],
      "stateMutability": "nonpayable",
      "type": "function"
    },
    {
      "inputs": [],
      "name": "roleManager",
      "outputs": [
        {
          "internalType": "contract RoleManagerContract",
          "name": "",
          "type": "address"
        }
      ],
      "stateMutability": "view",
      "type": "function"
    },
    {
      "inputs": [
        {
          "internalType": "uint256",
          "name": "_caseId",
          "type": "uint256"
        }
      ],
      "name": "submitReport",
      "outputs": [],
      "stateMutability": "nonpayable",
      "type": "function"
    }
  ],
  "bytecode": "0x608060405234801561001057600080fd5b5060405161158e38038061158e8339818101604052810190610032919061011d565b816000806101000a81548173ffffffffffffffffffffffffffffffffffffffff021916908373ffffffffffffffffffffffffffffffffffffffff16021790555080600160006101000a81548173ffffffffffffffffffffffffffffffffffffffff021916908373ffffffffffffffffffffffffffffffffffffffff160217905550505061015d565b600080fd5b600073ffffffffffffffffffffffffffffffffffffffff82169050919050565b60006100ea826100bf565b9050919050565b6100fa816100df565b811461010557600080fd5b50565b600081519050610117816100f1565b92915050565b60008060408385031215610134576101336100ba565b5b600061014285828601610108565b925050602061015385828601610108565b9150509250929050565b6114228061016c6000396000f3fe608060405234801561001057600080fd5b50600436106100925760003560e01c8063c04ae3e411610066578063c04ae3e414610148578063d556e8e614610164578063f0ab0f8714610182578063f26eb277146101b2578063f8ef1382146101ce57610092565b8062435da5146100975780630a0dc1c2146100b5578063664b77bd146100e55780637204204814610118575b600080fd5b61009f6101ea565b6040516100ac9190610c68565b60405180910390f35b6100cf60048036038101906100ca9190610cbe565b61020e565b6040516100dc9190610e3b565b60405180910390f35b6100ff60048036038101906100fa9190610e5d565b610307565b60405161010f9493929190610eca565b60405180910390f35b610132600480360381019061012d9190610cbe565b610381565b60405161013f9190610fbe565b60405180910390f35b610162600480360381019061015d9190610cbe565b610422565b005b61016c61056c565b6040516101799190611001565b60405180910390f35b61019c60048036038101906101979190610e5d565b610592565b6040516101a9919061101c565b60405180910390f35b6101cc60048036038101906101c79190610cbe565b6105e0565b005b6101e860048036038101906101e39190610cbe565b61084c565b005b60008054906101000a900473ffffffffffffffffffffffffffffffffffffffff1681565b606060036000838152602001908152602001600020805480602002602001604051908101604052809291908181526020016000905b828210156102fc5783829060005260206000209060030201604051806080016040529081600082015481526020016001820160009054906101000a900473ffffffffffffffffffffffffffffffffffffffff1673ffffffffffffffffffffffffffffffffffffffff1673ffffffffffffffffffffffffffffffffffffffff1681526020016001820160149054906101000a900460ff1660ff1660ff16815260200160028201548152505081526020019060010190610243565b505050509050919050565b6003602052816000526040600020818154811061032357600080fd5b9060005260206000209060030201600091509150508060000154908060010160009054906101000a900473ffffffffffffffffffffffffffffffffffffffff16908060010160149054906101000a900460ff16908060020154905084565b60606002600083815260200190815260200160002080548060200260200160405190810160405280929190818152602001828054801561041657602002820191906000526020600020905b8160009054906101000a900473ffffffffffffffffffffffffffffffffffffffff1673ffffffffffffffffffffffffffffffffffffffff16815260200190600101908083116103cc575b50505050509050919050565b6003600082815260200190815260200160002060405180608001604052808381526020013373ffffffffffffffffffffffffffffffffffffffff168152602001600360ff1681526020014281525090806001815401808255809150506001900390600052602060002090600302016000909190919091506000820151816000015560208201518160010160006101000a81548173ffffffffffffffffffffffffffffffffffffffff021916908373ffffffffffffffffffffffffffffffffffffffff16021790555060408201518160010160146101000a81548160ff021916908360ff1602179055506060820151816002015550503373ffffffffffffffffffffffffffffffffffffffff16817f4f6811f411fb89b154fc9c5281671882eabe4253c2494065d3d33752f7659175600342604051610561929190611072565b60405180910390a350565b600160009054906101000a900473ffffffffffffffffffffffffffffffffffffffff1681565b600260205281600052604060002081815481106105ae57600080fd5b906000526020600020016000915091509054906101000a900473ffffffffffffffffffffffffffffffffffffffff1681565b60008054906101000a900473ffffffffffffffffffffffffffffffffffffffff1673ffffffffffffffffffffffffffffffffffffffff1663217fe6c6336040518263ffffffff1660e01b815260040161063991906110f8565b602060405180830381865afa158015610656573d6000803e3d6000fd5b505050506040513d601f19601f8201168201806040525081019061067a919061115e565b6106b9576040517f08c379a00000000000000000000000000000000000000000000000000000000081526004016106b0906111d7565b60405180910390fd5b6106c38133610b2d565b610702576040517f08c379a00000000000000000000000000000000000000000000000000000000081526004016106f990611269565b60405180910390fd5b6003600082815260200190815260200160002060405180608001604052808381526020013373ffffffffffffffffffffffffffffffffffffffff168152602001600260ff1681526020014281525090806001815401808255809150506001900390600052602060002090600302016000909190919091506000820151816000015560208201518160010160006101000a81548173ffffffffffffffffffffffffffffffffffffffff021916908373ffffffffffffffffffffffffffffffffffffffff16021790555060408201518160010160146101000a81548160ff021916908360ff1602179055506060820151816002015550503373ffffffffffffffffffffffffffffffffffffffff16817f4f6811f411fb89b154fc9c5281671882eabe4253c2494065d3d33752f76591756002426040516108419291906112c4565b60405180910390a350565b60008054906101000a900473ffffffffffffffffffffffffffffffffffffffff1673ffffffffffffffffffffffffffffffffffffffff1663217fe6c6336040518263ffffffff1660e01b81526004016108a591906110f8565b602060405180830381865afa1580156108c2573d6000803e3d6000fd5b505050506040513d601f19601f820116820180604052508101906108e6919061115e565b610925576040517f08c379a000000000000000000000000000000000000000000000000000000000815260040161091c906111d7565b60405180910390fd5b61092f8133610b2d565b1561096f576040517f08c379a000000000000000000000000000000000000000000000000000000000815260040161096690611339565b60405180910390fd5b60026000828152602001908152602001600020339080600181540180825580915050600190039060005260206000200160009091909190916101000a81548173ffffffffffffffffffffffffffffffffffffffff021916908373ffffffffffffffffffffffffffffffffffffffff1602179055506003600082815260200190815260200160002060405180608001604052808381526020013373ffffffffffffffffffffffffffffffffffffffff168152602001600160ff1681526020014281525090806001815401808255809150506001900390600052602060002090600302016000909190919091506000820151816000015560208201518160010160006101000a81548173ffffffffffffffffffffffffffffffffffffffff021916908373ffffffffffffffffffffffffffffffffffffffff16021790555060408201518160010160146101000a81548160ff021916908360ff1602179055506060820151816002015550503373ffffffffffffffffffffffffffffffffffffffff16817f4f6811f411fb89b154fc9c5281671882eabe4253c2494065d3d33752f7659175600142604051610b22929190611394565b60405180910390a350565b60008060026000858152602001908152602001600020905060005b8180549050811015610bdc578373ffffffffffffffffffffffffffffffffffffffff16828281548110610b7e57610b7d6113bd565b5b9060005260206000200160009054906101000a900473ffffffffffffffffffffffffffffffffffffffff1673ffffffffffffffffffffffffffffffffffffffff1603610bcf57600192505050610be3565b8080600101915050610b48565b5060009150505b92915050565b600073ffffffffffffffffffffffffffffffffffffffff82169050919050565b6000819050919050565b6000610c2e610c29610c2484610be9565b610c09565b610be9565b9050919050565b6000610c4082610c13565b9050919050565b6000610c5282610c35565b9050919050565b610c6281610c47565b82525050565b6000602082019050610c7d6000830184610c59565b92915050565b600080fd5b6000819050919050565b610c9b81610c88565b8114610ca657600080fd5b50565b600081359050610cb881610c92565b92915050565b600060208284031215610cd457610cd3610c83565b5b6000610ce284828501610ca9565b91505092915050565b600081519050919050565b600082825260208201905092915050565b6000819050602082019050919050565b610d2081610c88565b82525050565b6000610d3182610be9565b9050919050565b610d4181610d26565b82525050565b600060ff82169050919050565b610d5d81610d47565b82525050565b608082016000820151610d796000850182610d17565b506020820151610d8c6020850182610d38565b506040820151610d9f6040850182610d54565b506060820151610db26060850182610d17565b50505050565b6000610dc48383610d63565b60808301905092915050565b6000602082019050919050565b6000610de882610ceb565b610df28185610cf6565b9350610dfd83610d07565b8060005b83811015610e2e578151610e158882610db8565b9750610e2083610dd0565b925050600181019050610e01565b5085935050505092915050565b60006020820190508181036000830152610e558184610ddd565b905092915050565b60008060408385031215610e7457610e73610c83565b5b6000610e8285828601610ca9565b9250506020610e9385828601610ca9565b9150509250929050565b610ea681610c88565b82525050565b610eb581610d26565b82525050565b610ec481610d47565b82525050565b6000608082019050610edf6000830187610e9d565b610eec6020830186610eac565b610ef96040830185610ebb565b610f066060830184610e9d565b95945050505050565b600081519050919050565b600082825260208201905092915050565b6000819050602082019050919050565b6000610f478383610d38565b60208301905092915050565b6000602082019050919050565b6000610f6b82610f0f565b610f758185610f1a565b9350610f8083610f2b565b8060005b83811015610fb1578151610f988882610f3b565b9750610fa383610f53565b925050600181019050610f84565b5085935050505092915050565b60006020820190508181036000830152610fd88184610f60565b905092915050565b6000610feb82610c35565b9050919050565b610ffb81610fe0565b82525050565b60006020820190506110166000830184610ff2565b92915050565b60006020820190506110316000830184610eac565b92915050565b6000819050919050565b600061105c61105761105284611037565b610c09565b610d47565b9050919050565b61106c81611041565b82525050565b60006040820190506110876000830185611063565b6110946020830184610e9d565b9392505050565b600082825260208201905092915050565b7f566f6c756e746565720000000000000000000000000000000000000000000000600082015250565b60006110e260098361109b565b91506110ed826110ac565b602082019050919050565b600060408201905061110d6000830184610eac565b818103602083015261111e816110d5565b905092915050565b60008115159050919050565b61113b81611126565b811461114657600080fd5b50565b60008151905061115881611132565b92915050565b60006020828403121561117457611173610c83565b5b600061118284828501611149565b91505092915050565b7f4163636573732064656e6965643a206e6f74206120766f6c756e746565720000600082015250565b60006111c1601e8361109b565b91506111cc8261118b565b602082019050919050565b600060208201905081810360008301526111f0816111b4565b9050919050565b7f4d757374206163636570742063617365206265666f7265207375626d6974746960008201527f6e67207265706f72740000000000000000000000000000000000000000000000602082015250565b600061125360298361109b565b915061125e826111f7565b604082019050919050565b6000602082019050818103600083015261128281611246565b9050919050565b6000819050919050565b60006112ae6112a96112a484611289565b610c09565b610d47565b9050919050565b6112be81611293565b82525050565b60006040820190506112d960008301856112b5565b6112e66020830184610e9d565b9392505050565b7f416c726561647920616363657074656400000000000000000000000000000000600082015250565b600061132360108361109b565b915061132e826112ed565b602082019050919050565b6000602082019050818103600083015261135281611316565b9050919050565b6000819050919050565b600061137e61137961137484611359565b610c09565b610d47565b9050919050565b61138e81611363565b82525050565b60006040820190506113a96000830185611385565b6113b66020830184610e9d565b9392505050565b7f4e487b7100000000000000000000000000000000000000000000000000000000600052603260045260246000fdfea2646970667358221220a371a3cb45e61b86823287ef7ac4ea7df65bd487cef305f31d7464107a12398c64736f6c634300081c0033",
  "linkReferences": {},
  "deployedLinkReferences": {}
}